:020000040800F2
:10000000880600207D0C00085102000853020008F9
:10001000570200085B0200085F02000800000000B1
:100020000000000000000000000000006302000863
:10003000650200080000000067020008950C000837
:10004000970C0008970C0008970C0008970C000804
:10005000970C0008970C0008970C00083502000860
:10006000970C0008970C0008970C0008970C0008E4
:10007000970C0008970C0008970C0008970C0008D4
:10008000970C0008970C0008970C0008970C0008C4
:10009000970C0008970C0008970C0008970C0008B4
:1000A000970C0008970C0008970C0008970C0008A4
:1000B000970C0008970C0008970C0008970C000894
:1000C000970C0008970C0008970C0008970C000884
:1000D000970C0008970C0008970C0008970C000874
:1000E000970C0008970C0008970C0008970C000864
:1000F000970C0008970C0008970C0008970C000854
:10010000970C0008970C0008970C0008970C000843
:10011000970C0008970C0008970C0008970C000833
:10012000970C0008970C0008970C0008970C000823
:1001300000F002F800F03AF80AA090E8000C8244BF
:100140008344AAF10107DA4501D100F02FF8AFF29C
:10015000090EBAE80F0013F0010F18BFFB1A43F0A5
:1001600001031847B40D0000D40D0000103A24BF5D
:1001700078C878C1FAD8520724BF30C830C144BF0C
:1001800004680C607047000000230024002500264E
:10019000103A28BF78C1FBD8520728BF30C148BFEA
:1001A0000B6070471FB51FBD10B510BD00F079FE84
:1001B0001146FFF7F7FF00F011F800F097FE03B4C7
:1001C000FFF7F2FF03BC00F09FFE00000146002293
:1001D00000E0521C8A42FCDB0020704700F062F80D
:1001E00000F044F86FF07F40FFF7F0FF40F271211C
:1001F000042000F08FF87D2000F0B1FB012807D12A
:100200000B48C06880F001000949C86000F010FD8B
:100210000DE00420064908616FF07F40FFF7D6FF2C
:100220000420034948616FF07F40FFF7CFFFF0E7FC
:100230000010014010B5022000F066F938B102202C
:1002400000F073F900F031FB02200749486110BD4E
:10025000704700BFFEE700BFFEE700BFFEE700BF3C
:10026000FEE77047704770470010014008B5012154
:10027000102000F09FFC0720ADF8000010208DF842
:10028000030003208DF802006946054800F0B6F926
:100290000348C06840F007000149C86008BD00007D
:1002A000001001401FB50121052000F083FC4FF430
:1002B000A06000F047F807208DF8000002208DF8BC
:1002C000010000208DF8020001208DF8030068462F
:1002D00000F03DF80220ADF80C0028208DF80F004A
:1002E00003A90B4800F08AF90121002000F09CFAD4
:1002F0000220019000208DF808000C208DF80900E4
:1003000001208DF80A0001A800F098F81FBD000038
:100310000008014070B505460C4645F2555000F006
:10032000BBFA284600F0BBFA204600F0BBFA00F00A
:10033000BCFA00F0BFFA002070BD10B500F0B5FAAD
:1003400010BD000031490143314A1160704770B55A
:10035000002100230F22C47804B32D4C246804F438
:10036000E064C4F5E064210AC1F10403CA404478A2
:1003700004FA03F18478144021430901254C0678DE
:10038000A155047804F01F050124AC4005786D11D7
:10039000AD0005F1E025C5F8004109E0047804F05E
:1003A0001F050124AC401C4D0678761145F8264007
:1003B00070BD1A4A0A400243154B1B1F1A60704752
:1003C00039B1134A121D12680243114B1B1D1A60EA
:1003D00006E00F4A121D126882430D4B1B1D1A6066
:1003E0007047042808D14FF0E021096941F0040169
:1003F0004FF0E022116107E04FF0E021096921F0A0
:1004000004014FF0E0221161704700000000FA057E
:100410000CED00E000E400E080E100E080FFFF1F61
:10042000002044490860091D0860091D0860091D75
:10043000086041483F4914310860704700213D4938
:100440008279002A3AD00A46126803689A430B461A
:100450001A600A1D126803689A430B1D1A6002791C
:1004600011440A6803681A430A60324A0832126863
:1004700003689A432F4B08331A601A1D12680368E9
:100480009A432C4B0C331A604279102A0ED11A1F52
:10049000126803681A43274B08331A601A1D126842
:1004A00003681A43234B0C331A600DE0214942794B
:1004B00011440A6803681A430A6005E0027911448E
:1004C0000A6803689A430A6070470021016001715D
:1004D0000C21417100218171704716491031096862
:1004E0000143144A10321160704701460020114A3E
:1004F000143212680A400AB1012000E0002070475F
:100500000C49143108607047014600200022094B55
:100510001B6803EA0102074B14331B680B4013B13D
:100520000AB1012000E00020704702491431086040
:100530007047000000040140FFFF0F0010B50446A3
:10054000CC48844208D10121042000F04DFB002159
:10055000042000F049FB46E0C748844208D101214D
:10056000082000F041FB0021082000F03DFB3AE0AC
:10057000C248844208D10121102000F035FB00213F
:10058000102000F031FB2EE0BD48844208D101214B
:10059000202000F029FB0021202000F025FB22E094
:1005A000B848844208D10121402000F01DFB002101
:1005B000402000F019FB16E0B348844208D1012125
:1005C000802000F011FB0021802000F00DFB0AE0EC
:1005D000AE48844207D10121801500F005FB0021BF
:1005E000A01500F001FB10BD10B50121084600F078
:1005F000FBFA0021012000F0F7FA10BD2DE9F041CF
:10060000024600250026002000230024002791F840
:1006100003C00CF00F0591F803C00CF0100CBCF1F6
:10062000000F03D091F802C04CEA050591F800C014
:10063000BCF1000F31D0146800202BE04FF0010C0A
:100640000CFA00F3B1F800C00CEA03069E4220D178
:1006500083004FF00F0C0CFA03F7BC4305FA03FCC0
:100660004CEA040491F803C0BCF1280F06D14FF006
:10067000010C0CFA00FCC2F814C00AE091F803C0A7
:10068000BCF1480F05D14FF0010C0CFA00FCC2F888
:1006900010C0401C0828D1D31460B1F800C0BCF1D0
:1006A000FF0F34DD546800202EE000F1080C4FF0FD
:1006B000010808FA0CF3B1F800C00CEA03069E42E8
:1006C00021D183004FF00F0C0CFA03F7BC4305FA5D
:1006D00003FC4CEA040491F803C0BCF1280F05D1D7
:1006E00000F1080C08FA0CF8C2F8148091F803C065
:1006F000BCF1480F07D100F1080C4FF0010808FACF
:100700000CF8C2F81080401C0828CED35460BDE815
:10071000F0814FF6FF710180022181700421C170C8
:1007200070470246002093680B400BB1012000E0A7
:10073000002070470146886880B27047024600205A
:10074000D3680B400BB1012000E000207047014648
:10075000C86880B2704701617047416170470AB153
:10076000016100E041617047C16070474FF4803221
:100770000A438261816182618269826970470246AF
:100780000020434B18684FF68073184040EA02106F
:1007900008433F4B186070473E49C8617047F0B549
:1007A0000A46002300240021002500F00046B6F18F
:1007B000004F02D1364EF16901E0354E7168C0F349
:1007C000034583B200F44016B6F5401F08D121F06E
:1007D00070612F4E766826F070662D4F7E6012E0B5
:1007E00000F48016B6F5801F06D1032606FA05F43C
:1007F000A14341F0706106E0460D360103FA06F6AA
:10080000B14341F0706122B1460D360103FA06F69C
:10081000314300F00046B6F1004F02D11C4EF161A9
:1008200001E01B4E7160F0BD30B500228B071C0F3C
:100830000F2303FA04F2164B08338C1053F82430BC
:100840009343134C08348D1044F8253023468C1004
:1008500053F824308C07240F00FA04F423430C4C83
:1008600008348D1044F8253030BD0A49DC31086069
:100870007047000000080140000C014000100140DA
:100880000014014000180140001C014000200140FC
:1008900000000140000020420E49086070470D49E9
:1008A000486070470B49886070474AF6AA2009499A
:1008B000086070474CF6CC40064908607047014616
:1008C0000020044AD2680A400AB1012000E000205A
:1008D0007047000000300040DF48006840F0010031
:1008E000DD49086008464068DC490840DA4948604C
:1008F00008460068DA490840D74908600846006899
:1009000020F4802008600846406820F4FE0048601B
:100910004FF41F0088607047CF49096821F4803187
:10092000CD4A11601146096821F480211160B0F5AB
:10093000803F03D0B0F5802F0ED106E0C64909688C
:1009400041F48031C44A116007E0C349096841F4A9
:10095000A021C14A116000E000BF00BF704710B580
:1009600001460022002300204A11012A02D1BA4C7C
:10097000236806E0022A02D1B74C236A01E0B64C94
:10098000636A01F01F02012494401C400CB1012055
:1009900000E0002010BD38B50020009000240025A4
:1009A00000BF3120FFF7DBFF05460098401C009098
:1009B0000098B0F5A06F01D0002DF2D03120FFF7E4
:1009C000CEFF08B1012400E00024204638BD0146D6
:1009D0000020A14A106820F0F80040EAC100106031
:1009E0007047A04908607047024600209A4B58683B
:1009F00020F47C1042EA01031843974B586070477B
:100A000098490866704701460020934A506820F0D4
:100A100003000843506070478F48406800F00C00A6
:100A20007047014600208C4A506820F0F0000843CF
:100A30005060704701460020874A506820F4E0600B
:100A400008435060704701460020834A506820F4F4
:100A5000605040EAC1005060704729B17E4A527A26
:100A600002437D4B5A7204E07B4A527A82437A4BAE
:100A70005A7270477B49D8310860704701460020A0
:100A8000754A506820F44040084350607047002188
:100A9000714A20321170704A82F82010012802D069
:100AA00004280AD104E001216B4A2032117005E0CC
:100AB0000521694A2032117000E000BF00BF704775
:100AC0006949086070476449096A0143624A1162D2
:100AD0007047654944390860704730B500210022ED
:100AE000002400235C4D6D6805F00C0121B1042940
:100AF00005D0082923D105E05C4D056022E05B4D5F
:100B000005601FE0544D6D6805F47012524D6D681C
:100B100005F48034022505EB92421CB9544D55432F
:100B200005600BE04C4D6D6805F400351DB1504D6E
:100B30005543056002E04D4D5543056002E04B4DC5
:100B4000056000BF00BF444D6D6805F0F001090964
:100B5000484D6B5C0568DD4045603F4D6D6805F4B0
:100B6000E061090A434D6B5C4568DD4085603A4DA4
:100B70006D6805F46051C90A3E4D6B5C4568DD4007
:100B8000C560354D6D6805F44041890B3A4D6B5C8D
:100B9000C568B5FBF3F5056130BD29B12E4A526930
:100BA00002432D4B5A6104E02B4A526982432A4B7F
:100BB0005A61704729B1284A92690243264B9A61CB
:100BC00004E0254A92698243234B9A61704729B118
:100BD000214AD2690243204BDA6104E01E4AD269FD
:100BE00082431D4BDA61704729B11B4AD268024328
:100BF000194BDA6004E0184AD2688243164BDA6077
:100C0000704729B1144A12690243134B1A6104E078
:100C1000114A12698243104B1A61704712494039D8
:100C2000086070470F49C86470470B49C871704726
:100C30000948406A40F080700749486270470146A1
:100C40000020054A92680A400AB1012000E0002015
:100C50007047014988727047001002400000FFF899
:100C6000FFFFF6FE000042428004424200127A007A
:100C700000093D00000000201000002009488047C6
:100C800009480047FEE7FEE7FEE7FEE7FEE7FEE76E
:100C9000FEE7FEE7FEE7FEE704480549054A064B86
:100CA000704700009B0D00083101000888000020FB
:100CB0008806002088020020880200200CB5002051
:100CC000019000906C48006840F480306A490860E8
:100CD00000BF6948006800F4003000900198401C93
:100CE0000190009818B90198B0F5A06FF1D1624851
:100CF000006800F4003010B10120009001E00020F5
:100D000000900098012843D15C48006840F0100032
:100D10005A4908600846006820F003000860084649
:100D2000006840F00200086053484068524948603B
:100D30000846406848600846406840F48060486063
:100D40000846406820F47C1048600846406840F43B
:100D5000E81048600846006840F08070086000BFF6
:100D60004548006800F000700028F9D0424840680B
:100D700020F00300404948600846406840F0020007
:100D8000486000BF3C48406800F00C000828F9D1DA
:100D90000CBD10B5FFF792FF10BD10B536480068C6
:100DA00040F0010034490860084640683449084072
:100DB0003149486008460068324908402E490860B9
:100DC0000846006820F4802008600846406820F447
:100DD000FE0048604FF41F008860FFF7DAFF4FF015
:100DE00000602949086010BD10B5002100200022D4
:100DF000214B5B6803F00C0121B1042906D00829BE
:100E000028D107E0214B224C236027E01F4B204CC8
:100E1000236023E0184B5B6803F47010164B5B688B
:100E200003F48032022303EB904022B9194B434371
:100E3000174C23600DE0104B5B6803F4003323B1C3
:100E4000144B4343124C236003E0104B4343104CBC
:100E5000236003E00D4B0E4C236000BF00BF064B28
:100E60005B68C3F303130C4CE15C094B1B68CB407C
:100E7000074C236010BD000000100240002002401B
:100E80000000FFF8FFFFF6FE08ED00E000127A0018
:100E90001400002000093D00180000207047704732
:100EA0007047754600F02CF8AE460500694653467B
:100EB00020F00700854618B020B5FFF7EDFEBDE82D
:100EC00020404FF000064FF000074FF000084FF0B1
:100ED000000B21F00701AC46ACE8C009ACE8C00942
:100EE000ACE8C009ACE8C0098D46704710B50446AF
:100EF000AFF300802046BDE81040FFF760B9000066
:100F0000004870472800002001491820ABBEFEE7CA
:100F10002600020070470000380F00080000002083
:100F2000280000006C010008600F00082800002065
:100F300060060000880100080000000001020304B0
:100F400001020304060708090204060800A24A0475
:100F50000000000000000000010203040607080969
:0400000508000131BD
:00000001FF
